{
  "contractName": "EVMContract",
  "abi": [
    {
      "inputs": [],
      "payable": false,
      "stateMutability": "nonpayable",
      "type": "constructor"
    },
    {
      "constant": true,
      "inputs": [],
      "name": "admin",
      "outputs": [
        {
          "internalType": "address",
          "name": "",
          "type": "address"
        }
      ],
      "payable": false,
      "stateMutability": "view",
      "type": "function"
    },
    {
      "constant": true,
      "inputs": [],
      "name": "canVote",
      "outputs": [
        {
          "internalType": "bool",
          "name": "",
          "type": "bool"
        }
      ],
      "payable": false,
      "stateMutability": "view",
      "type": "function"
    },
    {
      "constant": true,
      "inputs": [
        {
          "internalType": "uint256",
          "name": "",
          "type": "uint256"
        }
      ],
      "name": "candidateAddresses",
      "outputs": [
        {
          "internalType": "address",
          "name": "",
          "type": "address"
        }
      ],
      "payable": false,
      "stateMutability": "view",
      "type": "function"
    },
    {
      "constant": true,
      "inputs": [
        {
          "internalType": "address",
          "name": "",
          "type": "address"
        }
      ],
      "name": "hasVoted",
      "outputs": [
        {
          "internalType": "bool",
          "name": "",
          "type": "bool"
        }
      ],
      "payable": false,
      "stateMutability": "view",
      "type": "function"
    },
    {
      "constant": true,
      "inputs": [],
      "name": "isRegistrationOpen",
      "outputs": [
        {
          "internalType": "bool",
          "name": "",
          "type": "bool"
        }
      ],
      "payable": false,
      "stateMutability": "view",
      "type": "function"
    },
    {
      "constant": true,
      "inputs": [],
      "name": "winner",
      "outputs": [
        {
          "internalType": "string",
          "name": "name",
          "type": "string"
        },
        {
          "internalType": "uint256",
          "name": "voteCount",
          "type": "uint256"
        },
        {
          "internalType": "bool",
          "name": "hasRegistered",
          "type": "bool"
        },
        {
          "internalType": "address",
          "name": "ethAddress",
          "type": "address"
        }
      ],
      "payable": false,
      "stateMutability": "view",
      "type": "function"
    },
    {
      "constant": false,
      "inputs": [],
      "name": "closeRegistration",
      "outputs": [],
      "payable": false,
      "stateMutability": "nonpayable",
      "type": "function"
    },
    {
      "constant": true,
      "inputs": [
        {
          "internalType": "address",
          "name": "ethAddress",
          "type": "address"
        }
      ],
      "name": "getCandidateData",
      "outputs": [
        {
          "components": [
            {
              "internalType": "string",
              "name": "name",
              "type": "string"
            },
            {
              "internalType": "uint256",
              "name": "voteCount",
              "type": "uint256"
            },
            {
              "internalType": "bool",
              "name": "hasRegistered",
              "type": "bool"
            },
            {
              "internalType": "address",
              "name": "ethAddress",
              "type": "address"
            }
          ],
          "internalType": "struct EVMContract.Candidate",
          "name": "",
          "type": "tuple"
        }
      ],
      "payable": false,
      "stateMutability": "view",
      "type": "function"
    },
    {
      "constant": false,
      "inputs": [
        {
          "internalType": "string",
          "name": "_name",
          "type": "string"
        }
      ],
      "name": "register",
      "outputs": [],
      "payable": false,
      "stateMutability": "nonpayable",
      "type": "function"
    },
    {
      "constant": false,
      "inputs": [],
      "name": "startVoting",
      "outputs": [],
      "payable": false,
      "stateMutability": "nonpayable",
      "type": "function"
    },
    {
      "constant": true,
      "inputs": [],
      "name": "getCandidateList",
      "outputs": [
        {
          "internalType": "address[]",
          "name": "",
          "type": "address[]"
        }
      ],
      "payable": false,
      "stateMutability": "view",
      "type": "function"
    },
    {
      "constant": false,
      "inputs": [
        {
          "internalType": "address",
          "name": "candidateEthAddress",
          "type": "address"
        }
      ],
      "name": "vote",
      "outputs": [
        {
          "components": [
            {
              "internalType": "string",
              "name": "name",
              "type": "string"
            },
            {
              "internalType": "uint256",
              "name": "voteCount",
              "type": "uint256"
            },
            {
              "internalType": "bool",
              "name": "hasRegistered",
              "type": "bool"
            },
            {
              "internalType": "address",
              "name": "ethAddress",
              "type": "address"
            }
          ],
          "internalType": "struct EVMContract.Candidate",
          "name": "",
          "type": "tuple"
        }
      ],
      "payable": false,
      "stateMutability": "nonpayable",
      "type": "function"
    },
    {
      "constant": false,
      "inputs": [],
      "name": "closeVoting",
      "outputs": [],
      "payable": false,
      "stateMutability": "nonpayable",
      "type": "function"
    }
  ],
  "bytecode": "0x608060405260008060146101000a81548160ff02191690831515021790555060008060156101000a81548160ff02191690831515021790555034801561004457600080fd5b50336000806101000a81548173ffffffffffffffffffffffffffffffffffffffff021916908373ffffffffffffffffffffffffffffffffffffffff1602179055506001600060146101000a81548160ff02191690831515021790555061154a806100af6000396000f3fe608060405234801561001057600080fd5b50600436106100cf5760003560e01c80637dc673bc1161008c578063dfbf53ae11610066578063dfbf53ae146101ee578063f2c298be1461020f578063f851a4401461022b578063fdbc400614610249576100cf565b80637dc673bc146101aa578063c631b292146101b4578063d55d73c5146101be576100cf565b806309eef43e146100d4578063159e7064146101045780631ec6b60a146101225780632a466ac71461012c5780636dd7d8ea1461015c5780637ab2af2b1461018c575b600080fd5b6100ee60048036036100e99190810190610f3b565b610267565b6040516100fb9190611296565b60405180910390f35b61010c610287565b6040516101199190611296565b60405180910390f35b61012a61029a565b005b61014660048036036101419190810190610f3b565b610360565b604051610153919061135d565b60405180910390f35b61017660048036036101719190810190610f3b565b6104d6565b604051610183919061135d565b60405180910390f35b61019461082f565b6040516101a19190611296565b60405180910390f35b6101b2610842565b005b6101bc6108b7565b005b6101d860048036036101d39190810190610fa5565b61092c565b6040516101e59190611259565b60405180910390f35b6101f6610968565b60405161020694939291906112b1565b60405180910390f35b61022960048036036102249190810190610f64565b610a4b565b005b610233610c9e565b6040516102409190611259565b60405180910390f35b610251610cc3565b60405161025e9190611274565b60405180910390f35b60056020528060005260406000206000915054906101000a900460ff1681565b600060159054906101000a900460ff1681565b6000809054906101000a900473ffffffffffffffffffffffffffffffffffffffff1673ffffffffffffffffffffffffffffffffffffffff163373ffffffffffffffffffffffffffffffffffffffff16146102f357600080fd5b600060149054906101000a900460ff1615610343576040517f08c379a000000000000000000000000000000000000000000000000000000000815260040161033a906112fd565b60405180910390fd5b6001600060156101000a81548160ff021916908315150217905550565b610368610d51565b600460008373ffffffffffffffffffffffffffffffffffffffff1673ffffffffffffffffffffffffffffffffffffffff168152602001908152602001600020604051806080016040529081600082018054600181600116156101000203166002900480601f01602080910402602001604051908101604052809291908181526020018280546001816001161561010002031660029004801561044b5780601f106104205761010080835404028352916020019161044b565b820191906000526020600020905b81548152906001019060200180831161042e57829003601f168201915b50505050508152602001600182015481526020016002820160009054906101000a900460ff161515151581526020016002820160019054906101000a900473ffffffffffffffffffffffffffffffffffffffff1673ffffffffffffffffffffffffffffffffffffffff1673ffffffffffffffffffffffffffffffffffffffff16815250509050919050565b6104de610d51565b600560003373ffffffffffffffffffffffffffffffffffffffff1673ffffffffffffffffffffffffffffffffffffffff16815260200190815260200160002060009054906101000a900460ff161561053557600080fd5b6000600460008473ffffffffffffffffffffffffffffffffffffffff1673ffffffffffffffffffffffffffffffffffffffff16815260200190815260200160002090506001816001016000828254019250508190555080600101546001800154101561066857806001600082018160000190805460018160011615610100020316600290046105c5929190610d91565b50600182015481600101556002820160009054906101000a900460ff168160020160006101000a81548160ff0219169083151502179055506002820160019054906101000a900473ffffffffffffffffffffffffffffffffffffffff168160020160016101000a81548173ffffffffffffffffffffffffffffffffffffffff021916908373ffffffffffffffffffffffffffffffffffffffff1602179055509050505b6001600560003373ffffffffffffffffffffffffffffffffffffffff1673ffffffffffffffffffffffffffffffffffffffff16815260200190815260200160002060006101000a81548160ff021916908315150217905550600460008473ffffffffffffffffffffffffffffffffffffffff1673ffffffffffffffffffffffffffffffffffffffff168152602001908152602001600020604051806080016040529081600082018054600181600116156101000203166002900480601f0160208091040260200160405190810160405280929190818152602001828054600181600116156101000203166002900480156107a35780601f10610778576101008083540402835291602001916107a3565b820191906000526020600020905b81548152906001019060200180831161078657829003601f168201915b50505050508152602001600182015481526020016002820160009054906101000a900460ff161515151581526020016002820160019054906101000a900473ffffffffffffffffffffffffffffffffffffffff1673ffffffffffffffffffffffffffffffffffffffff1673ffffffffffffffffffffffffffffffffffffffff1681525050915050919050565b600060149054906101000a900460ff1681565b6000809054906101000a900473ffffffffffffffffffffffffffffffffffffffff1673ffffffffffffffffffffffffffffffffffffffff163373ffffffffffffffffffffffffffffffffffffffff161461089b57600080fd5b60008060146101000a81548160ff021916908315150217905550565b6000809054906101000a900473ffffffffffffffffffffffffffffffffffffffff1673ffffffffffffffffffffffffffffffffffffffff163373ffffffffffffffffffffffffffffffffffffffff161461091057600080fd5b60008060156101000a81548160ff021916908315150217905550565b6006818154811061093957fe5b906000526020600020016000915054906101000a900473ffffffffffffffffffffffffffffffffffffffff1681565b6001806000018054600181600116156101000203166002900480601f016020809104026020016040519081016040528092919081815260200182805460018160011615610100020316600290048015610a025780601f106109d757610100808354040283529160200191610a02565b820191906000526020600020905b8154815290600101906020018083116109e557829003601f168201915b5050505050908060010154908060020160009054906101000a900460ff16908060020160019054906101000a900473ffffffffffffffffffffffffffffffffffffffff16905084565b600460003373ffffffffffffffffffffffffffffffffffffffff1673ffffffffffffffffffffffffffffffffffffffff16815260200190815260200160002060020160009054906101000a900460ff1615610adb576040517f08c379a0000000000000000000000000000000000000000000000000000000008152600401610ad29061133d565b60405180910390fd5b600060149054906101000a900460ff16610b2a576040517f08c379a0000000000000000000000000000000000000000000000000000000008152600401610b219061131d565b60405180910390fd5b6040518060800160405280828152602001600081526020016001151581526020013373ffffffffffffffffffffffffffffffffffffffff16815250600460003373ffffffffffffffffffffffffffffffffffffffff1673ffffffffffffffffffffffffffffffffffffffff1681526020019081526020016000206000820151816000019080519060200190610bc0929190610e18565b506020820151816001015560408201518160020160006101000a81548160ff02191690831515021790555060608201518160020160016101000a81548173ffffffffffffffffffffffffffffffffffffffff021916908373ffffffffffffffffffffffffffffffffffffffff16021790555090505060063390806001815401808255809150509060018203906000526020600020016000909192909190916101000a81548173ffffffffffffffffffffffffffffffffffffffff021916908373ffffffffffffffffffffffffffffffffffffffff1602179055505050565b6000809054906101000a900473ffffffffffffffffffffffffffffffffffffffff1681565b60606006805480602002602001604051908101604052809291908181526020018280548015610d4757602002820191906000526020600020905b8160009054906101000a900473ffffffffffffffffffffffffffffffffffffffff1673ffffffffffffffffffffffffffffffffffffffff1681526020019060010190808311610cfd575b5050505050905090565b60405180608001604052806060815260200160008152602001600015158152602001600073ffffffffffffffffffffffffffffffffffffffff1681525090565b828054600181600116156101000203166002900490600052602060002090601f016020900481019282601f10610dca5780548555610e07565b82800160010185558215610e0757600052602060002091601f016020900482015b82811115610e06578254825591600101919060010190610deb565b5b509050610e149190610e98565b5090565b828054600181600116156101000203166002900490600052602060002090601f016020900481019282601f10610e5957805160ff1916838001178555610e87565b82800160010185558215610e87579182015b82811115610e86578251825591602001919060010190610e6b565b5b509050610e949190610e98565b5090565b610eba91905b80821115610eb6576000816000905550600101610e9e565b5090565b90565b600081359050610ecc816114d9565b92915050565b600082601f830112610ee357600080fd5b8135610ef6610ef1826113ac565b61137f565b91508082526020830160208301858383011115610f1257600080fd5b610f1d838284611486565b50505092915050565b600081359050610f35816114f0565b92915050565b600060208284031215610f4d57600080fd5b6000610f5b84828501610ebd565b91505092915050565b600060208284031215610f7657600080fd5b600082013567ffffffffffffffff811115610f9057600080fd5b610f9c84828501610ed2565b91505092915050565b600060208284031215610fb757600080fd5b6000610fc584828501610f26565b91505092915050565b6000610fda8383610fe6565b60208301905092915050565b610fef8161143e565b82525050565b610ffe8161143e565b82525050565b600061100f826113e8565b611019818561140b565b9350611024836113d8565b8060005b8381101561105557815161103c8882610fce565b9750611047836113fe565b925050600181019050611028565b5085935050505092915050565b61106b81611450565b82525050565b61107a81611450565b82525050565b600061108b826113f3565b611095818561141c565b93506110a5818560208601611495565b6110ae816114c8565b840191505092915050565b60006110c4826113f3565b6110ce818561142d565b93506110de818560208601611495565b6110e7816114c8565b840191505092915050565b60006110ff601d8361142d565b91507f526567697374726174696f6e206861736e277420656e646564207965740000006000830152602082019050919050565b600061113f60248361142d565b91507f526567697374726174696f6e7320617265206e6f74206f70656e20726967687460008301527f206e6f77000000000000000000000000000000000000000000000000000000006020830152604082019050919050565b60006111a560208361142d565b91507f43616e6469646174652068617320616c726561647920726567697374657265646000830152602082019050919050565b600060808301600083015184820360008601526111f58282611080565b915050602083015161120a602086018261123b565b50604083015161121d6040860182611062565b5060608301516112306060860182610fe6565b508091505092915050565b6112448161147c565b82525050565b6112538161147c565b82525050565b600060208201905061126e6000830184610ff5565b92915050565b6000602082019050818103600083015261128e8184611004565b905092915050565b60006020820190506112ab6000830184611071565b92915050565b600060808201905081810360008301526112cb81876110b9565b90506112da602083018661124a565b6112e76040830185611071565b6112f46060830184610ff5565b95945050505050565b60006020820190508181036000830152611316816110f2565b9050919050565b6000602082019050818103600083015261133681611132565b9050919050565b6000602082019050818103600083015261135681611198565b9050919050565b6000602082019050818103600083015261137781846111d8565b905092915050565b6000604051905081810181811067ffffffffffffffff821117156113a257600080fd5b8060405250919050565b600067ffffffffffffffff8211156113c357600080fd5b601f19601f8301169050602081019050919050565b6000819050602082019050919050565b600081519050919050565b600081519050919050565b6000602082019050919050565b600082825260208201905092915050565b600082825260208201905092915050565b600082825260208201905092915050565b60006114498261145c565b9050919050565b60008115159050919050565b600073ffffffffffffffffffffffffffffffffffffffff82169050919050565b6000819050919050565b82818337600083830152505050565b60005b838110156114b3578082015181840152602081019050611498565b838111156114c2576000848401525b50505050565b6000601f19601f8301169050919050565b6114e28161143e565b81146114ed57600080fd5b50565b6114f98161147c565b811461150457600080fd5b5056fea365627a7a72315820b0b4ce7eaa123519785d1222c85ddc6dd27451caf20a3c64480a8cebbf75b8206c6578706572696d656e74616cf564736f6c634300050c0040",
  "source": "pragma solidity ^0.5.0;\npragma experimental ABIEncoderV2;\ncontract EVMContract {\n    struct Candidate {\n        string name;\n        uint voteCount;\n        bool hasRegistered;\n        address ethAddress;\n    }\n    \n    address public admin;\n    bool public isRegistrationOpen = false;\n    bool public canVote = false;\n\n    Candidate public winner;\n\n    mapping(address => Candidate)  candidates;\n    mapping(address => bool) public hasVoted;\n    address[] public candidateAddresses;\n\n    constructor() public {\n        admin = msg.sender;\n        isRegistrationOpen = true;\n    }\n\n    modifier onlyAdmin {\n        require(msg.sender == admin);\n        _;\n    }\n\n    modifier hasNotVotedEarlier {\n        require(!hasVoted[msg.sender]);\n        _;\n    }\n\n    modifier hasNotRegisteredEarlier {\n        require(\n            !candidates[msg.sender].hasRegistered,\n            \"Candidate has already registered\"\n        );\n        _;\n    }\n\n    function closeRegistration() public onlyAdmin {\n        isRegistrationOpen = false;\n    }\n  function getCandidateData(address ethAddress) public view returns (Candidate memory){\n     return candidates[ethAddress];\n     \n    }\n\n    function register(string memory _name) public hasNotRegisteredEarlier {\n        require(isRegistrationOpen, \"Registrations are not open right now\");\n        candidates[msg.sender] = Candidate({\n            name: _name,\n            voteCount: 0,\n            hasRegistered: true,\n            ethAddress: msg.sender\n        });\n        candidateAddresses.push(msg.sender);\n    }\n\n    function startVoting() public onlyAdmin {\n        require(!isRegistrationOpen, \"Registration hasn't ended yet\");\n        canVote = true;\n    }\n\n    function getCandidateList() public view returns( address[] memory) {\n        return candidateAddresses;\n    }\n\n    function vote(address candidateEthAddress) public  hasNotVotedEarlier returns ( Candidate memory)   {\n        Candidate storage candidate = candidates[candidateEthAddress];\n        candidate.voteCount += 1;\n        if (winner.voteCount < candidate.voteCount) {\n            winner = candidate;\n        }\n        hasVoted[msg.sender] = true;\n        return  candidates[candidateEthAddress];\n    }\n\n    function closeVoting() public onlyAdmin {\n        canVote = false;\n    }\n\n}\n",
  "sourcePath": "/home/neeraj/starter_kit/src/contracts/EVMContract.sol",
  "compiler": {
    "name": "solc",
    "version": "0.5.12+commit.7709ece9.Emscripten.clang"
  },
  "schemaVersion": "3.0.19",
  "updatedAt": "2020-03-13T16:02:39.814Z",
  "networkType": "ethereum",
  "devdoc": {
    "methods": {}
  },
  "userdoc": {
    "methods": {}
  }
}